{
  "address": "0xC774586b30dD481f925628b631dc7C1333b77289",
  "abi": [
    {
      "inputs": [
        {
          "internalType": "address",
          "name": "priceFeedAddress",
          "type": "address"
        }
      ],
      "stateMutability": "nonpayable",
      "type": "constructor"
    },
    {
      "inputs": [],
      "name": "getEthPriceInUSD",
      "outputs": [
        {
          "internalType": "uint256",
          "name": "",
          "type": "uint256"
        }
      ],
      "stateMutability": "view",
      "type": "function"
    }
  ],
  "transactionHash": "0x769e007ea61a4a7ff30d4076ad9d3d4ad2edebe43906fd301cd468d20311e691",
  "args": [
    "0xD4a33860578De61DBAbDc8BFdb98FD742fA7028e"
  ],
  "numDeployments": 4,
  "solcInputHash": "c8dedfa50023e66a519156a5dbc1ac24",
  "bytecode": "0x60a060405234801561001057600080fd5b50604051610418380380610418833981810160405281019061003291906100cf565b8073ffffffffffffffffffffffffffffffffffffffff1660808173ffffffffffffffffffffffffffffffffffffffff1681525050506100fc565b600080fd5b600073ffffffffffffffffffffffffffffffffffffffff82169050919050565b600061009c82610071565b9050919050565b6100ac81610091565b81146100b757600080fd5b50565b6000815190506100c9816100a3565b92915050565b6000602082840312156100e5576100e461006c565b5b60006100f3848285016100ba565b91505092915050565b6080516103026101166000396000605301526103026000f3fe608060405234801561001057600080fd5b506004361061002b5760003560e01c8063787beb3414610030575b600080fd5b61003861004e565b604051610045919061011c565b60405180910390f35b6000807f000000000000000000000000000000000000000000000000000000000000000073ffffffffffffffffffffffffffffffffffffffff1663feaf968c6040518163ffffffff1660e01b815260040160a060405180830381865afa1580156100bc573d6000803e3d6000fd5b505050506040513d601f19601f820116820180604052508101906100e091906101e0565b50505091505060006402540be400826100f9919061028a565b9050809250505090565b6000819050919050565b61011681610103565b82525050565b6000602082019050610131600083018461010d565b92915050565b600080fd5b600069ffffffffffffffffffff82169050919050565b61015b8161013c565b811461016657600080fd5b50565b60008151905061017881610152565b92915050565b6000819050919050565b6101918161017e565b811461019c57600080fd5b50565b6000815190506101ae81610188565b92915050565b6101bd81610103565b81146101c857600080fd5b50565b6000815190506101da816101b4565b92915050565b600080600080600060a086880312156101fc576101fb610137565b5b600061020a88828901610169565b955050602061021b8882890161019f565b945050604061022c888289016101cb565b935050606061023d888289016101cb565b925050608061024e88828901610169565b9150509295509295909350565b7f4e487b7100000000000000000000000000000000000000000000000000000000600052601160045260246000fd5b600061029582610103565b91506102a083610103565b92508282026102ae81610103565b915082820484148315176102c5576102c461025b565b5b509291505056fea264697066735822122016ee764b39ccc2e263c2f52cb74f962eda06e0da380e591f759b120fbd1c38d664736f6c63430008110033",
  "devdoc": {
    "kind": "dev",
    "methods": {},
    "version": 1
  },
  "userdoc": {
    "kind": "user",
    "methods": {},
    "version": 1
  },
  "storageLayout": {
    "storage": [],
    "types": null
  }
}